{"abi":[{"type":"constructor","inputs":[],"stateMutability":"nonpayable"},{"type":"function","name":"addNgo","inputs":[{"name":"_ngoAddress","type":"address","internalType":"address"}],"outputs":[],"stateMutability":"nonpayable"},{"type":"function","name":"balanceOf","inputs":[{"name":"account","type":"address","internalType":"address"},{"name":"id","type":"uint256","internalType":"uint256"}],"outputs":[{"name":"","type":"uint256","internalType":"uint256"}],"stateMutability":"view"},{"type":"function","name":"balanceOfBatch","inputs":[{"name":"accounts","type":"address[]","internalType":"address[]"},{"name":"ids","type":"uint256[]","internalType":"uint256[]"}],"outputs":[{"name":"","type":"uint256[]","internalType":"uint256[]"}],"stateMutability":"view"},{"type":"function","name":"getAllProjects","inputs":[],"outputs":[{"name":"","type":"tuple[]","internalType":"struct BlueLedger.Project[]","components":[{"name":"id","type":"uint256","internalType":"uint256"},{"name":"name","type":"string","internalType":"string"},{"name":"location","type":"string","internalType":"string"},{"name":"metadataHash","type":"string","internalType":"string"},{"name":"owner","type":"address","internalType":"address"},{"name":"status","type":"uint8","internalType":"enum BlueLedger.ProjectStatus"},{"name":"lastSubmittedAt","type":"uint256","internalType":"uint256"},{"name":"carbonSequestered","type":"uint256","internalType":"uint256"},{"name":"creditsMinted","type":"uint256","internalType":"uint256"},{"name":"rejectionReason","type":"string","internalType":"string"},{"name":"registrationTimestamp","type":"uint256","internalType":"uint256"},{"name":"decisionTimestamp","type":"uint256","internalType":"uint256"}]}],"stateMutability":"view"},{"type":"function","name":"getMRVDataForProject","inputs":[{"name":"_projectId","type":"uint256","internalType":"uint256"}],"outputs":[{"name":"","type":"tuple[]","internalType":"struct BlueLedger.MRVData[]","components":[{"name":"id","type":"uint256","internalType":"uint256"},{"name":"projectId","type":"uint256","internalType":"uint256"},{"name":"dataHash","type":"string","internalType":"string"},{"name":"timestamp","type":"uint256","internalType":"uint256"},{"name":"submitter","type":"address","internalType":"address"}]}],"stateMutability":"view"},{"type":"function","name":"isApprovedForAll","inputs":[{"name":"account","type":"address","internalType":"address"},{"name":"operator","type":"address","internalType":"address"}],"outputs":[{"name":"","type":"bool","internalType":"bool"}],"stateMutability":"view"},{"type":"function","name":"isNgo","inputs":[{"name":"","type":"address","internalType":"address"}],"outputs":[{"name":"","type":"bool","internalType":"bool"}],"stateMutability":"view"},{"type":"function","name":"owner","inputs":[],"outputs":[{"name":"","type":"address","internalType":"address"}],"stateMutability":"view"},{"type":"function","name":"projectMRVData","inputs":[{"name":"","type":"uint256","internalType":"uint256"},{"name":"","type":"uint256","internalType":"uint256"}],"outputs":[{"name":"id","type":"uint256","internalType":"uint256"},{"name":"projectId","type":"uint256","internalType":"uint256"},{"name":"dataHash","type":"string","internalType":"string"},{"name":"timestamp","type":"uint256","internalType":"uint256"},{"name":"submitter","type":"address","internalType":"address"}],"stateMutability":"view"},{"type":"function","name":"projects","inputs":[{"name":"","type":"uint256","internalType":"uint256"}],"outputs":[{"name":"id","type":"uint256","internalType":"uint256"},{"name":"name","type":"string","internalType":"string"},{"name":"location","type":"string","internalType":"string"},{"name":"metadataHash","type":"string","internalType":"string"},{"name":"owner","type":"address","internalType":"address"},{"name":"status","type":"uint8","internalType":"enum BlueLedger.ProjectStatus"},{"name":"lastSubmittedAt","type":"uint256","internalType":"uint256"},{"name":"carbonSequestered","type":"uint256","internalType":"uint256"},{"name":"creditsMinted","type":"uint256","internalType":"uint256"},{"name":"rejectionReason","type":"string","internalType":"string"},{"name":"registrationTimestamp","type":"uint256","internalType":"uint256"},{"name":"decisionTimestamp","type":"uint256","internalType":"uint256"}],"stateMutability":"view"},{"type":"function","name":"registerProject","inputs":[{"name":"_name","type":"string","internalType":"string"},{"name":"_location","type":"string","internalType":"string"},{"name":"_metadataHash","type":"string","internalType":"string"}],"outputs":[],"stateMutability":"nonpayable"},{"type":"function","name":"rejectProject","inputs":[{"name":"_projectId","type":"uint256","internalType":"uint256"},{"name":"_reason","type":"string","internalType":"string"}],"outputs":[],"stateMutability":"nonpayable"},{"type":"function","name":"removeNgo","inputs":[{"name":"_ngoAddress","type":"address","internalType":"address"}],"outputs":[],"stateMutability":"nonpayable"},{"type":"function","name":"renounceOwnership","inputs":[],"outputs":[],"stateMutability":"nonpayable"},{"type":"function","name":"safeBatchTransferFrom","inputs":[{"name":"from","type":"address","internalType":"address"},{"name":"to","type":"address","internalType":"address"},{"name":"ids","type":"uint256[]","internalType":"uint256[]"},{"name":"values","type":"uint256[]","internalType":"uint256[]"},{"name":"data","type":"bytes","internalType":"bytes"}],"outputs":[],"stateMutability":"nonpayable"},{"type":"function","name":"safeTransferFrom","inputs":[{"name":"from","type":"address","internalType":"address"},{"name":"to","type":"address","internalType":"address"},{"name":"id","type":"uint256","internalType":"uint256"},{"name":"value","type":"uint256","internalType":"uint256"},{"name":"data","type":"bytes","internalType":"bytes"}],"outputs":[],"stateMutability":"nonpayable"},{"type":"function","name":"setApprovalForAll","inputs":[{"name":"operator","type":"address","internalType":"address"},{"name":"approved","type":"bool","internalType":"bool"}],"outputs":[],"stateMutability":"nonpayable"},{"type":"function","name":"submitMRVData","inputs":[{"name":"_projectId","type":"uint256","internalType":"uint256"},{"name":"_dataHash","type":"string","internalType":"string"}],"outputs":[],"stateMutability":"nonpayable"},{"type":"function","name":"supportsInterface","inputs":[{"name":"interfaceId","type":"bytes4","internalType":"bytes4"}],"outputs":[{"name":"","type":"bool","internalType":"bool"}],"stateMutability":"view"},{"type":"function","name":"transferOwnership","inputs":[{"name":"newOwner","type":"address","internalType":"address"}],"outputs":[],"stateMutability":"nonpayable"},{"type":"function","name":"uri","inputs":[{"name":"_tokenId","type":"uint256","internalType":"uint256"}],"outputs":[{"name":"","type":"string","internalType":"string"}],"stateMutability":"view"},{"type":"function","name":"verifyAndMintCredits","inputs":[{"name":"_projectId","type":"uint256","internalType":"uint256"},{"name":"_creditsToMint","type":"uint256","internalType":"uint256"},{"name":"_carbonAmount","type":"uint256","internalType":"uint256"}],"outputs":[],"stateMutability":"nonpayable"},{"type":"event","name":"ApprovalForAll","inputs":[{"name":"account","type":"address","indexed":true,"internalType":"address"},{"name":"operator","type":"address","indexed":true,"internalType":"address"},{"name":"approved","type":"bool","indexed":false,"internalType":"bool"}],"anonymous":false},{"type":"event","name":"MRVDataSubmitted","inputs":[{"name":"projectId","type":"uint256","indexed":true,"internalType":"uint256"},{"name":"mrvId","type":"uint256","indexed":false,"internalType":"uint256"},{"name":"dataHash","type":"string","indexed":false,"internalType":"string"}],"anonymous":false},{"type":"event","name":"NgoAdded","inputs":[{"name":"ngoAddress","type":"address","indexed":true,"internalType":"address"}],"anonymous":false},{"type":"event","name":"NgoRemoved","inputs":[{"name":"ngoAddress","type":"address","indexed":true,"internalType":"address"}],"anonymous":false},{"type":"event","name":"OwnershipTransferred","inputs":[{"name":"previousOwner","type":"address","indexed":true,"internalType":"address"},{"name":"newOwner","type":"address","indexed":true,"internalType":"address"}],"anonymous":false},{"type":"event","name":"ProjectRegistered","inputs":[{"name":"projectId","type":"uint256","indexed":true,"internalType":"uint256"},{"name":"owner","type":"address","indexed":true,"internalType":"address"},{"name":"name","type":"string","indexed":false,"internalType":"string"}],"anonymous":false},{"type":"event","name":"ProjectRejected","inputs":[{"name":"projectId","type":"uint256","indexed":true,"internalType":"uint256"},{"name":"reason","type":"string","indexed":false,"internalType":"string"}],"anonymous":false},{"type":"event","name":"ProjectVerified","inputs":[{"name":"projectId","type":"uint256","indexed":true,"internalType":"uint256"},{"name":"creditsMinted","type":"uint256","indexed":false,"internalType":"uint256"}],"anonymous":false},{"type":"event","name":"TransferBatch","inputs":[{"name":"operator","type":"address","indexed":true,"internalType":"address"},{"name":"from","type":"address","indexed":true,"internalType":"address"},{"name":"to","type":"address","indexed":true,"internalType":"address"},{"name":"ids","type":"uint256[]","indexed":false,"internalType":"uint256[]"},{"name":"values","type":"uint256[]","indexed":false,"internalType":"uint256[]"}],"anonymous":false},{"type":"event","name":"TransferSingle","inputs":[{"name":"operator","type":"address","indexed":true,"internalType":"address"},{"name":"from","type":"address","indexed":true,"internalType":"address"},{"name":"to","type":"address","indexed":true,"internalType":"address"},{"name":"id","type":"uint256","indexed":false,"internalType":"uint256"},{"name":"value","type":"uint256","indexed":false,"internalType":"uint256"}],"anonymous":false},{"type":"event","name":"URI","inputs":[{"name":"value","type":"string","indexed":false,"internalType":"string"},{"name":"id","type":"uint256","indexed":true,"internalType":"uint256"}],"anonymous":false},{"type":"error","name":"ERC1155InsufficientBalance","inputs":[{"name":"sender","type":"address","internalType":"address"},{"name":"balance","type":"uint256","internalType":"uint256"},{"name":"needed","type":"uint256","internalType":"uint256"},{"name":"tokenId","type":"uint256","internalType":"uint256"}]},{"type":"error","name":"ERC1155InvalidApprover","inputs":[{"name":"approver","type":"address","internalType":"address"}]},{"type":"error","name":"ERC1155InvalidArrayLength","inputs":[{"name":"idsLength","type":"uint256","internalType":"uint256"},{"name":"valuesLength","type":"uint256","internalType":"uint256"}]},{"type":"error","name":"ERC1155InvalidOperator","inputs":[{"name":"operator","type":"address","internalType":"address"}]},{"type":"error","name":"ERC1155InvalidReceiver","inputs":[{"name":"receiver","type":"address","internalType":"address"}]},{"type":"error","name":"ERC1155InvalidSender","inputs":[{"name":"sender","type":"address","internalType":"address"}]},{"type":"error","name":"ERC1155MissingApprovalForAll","inputs":[{"name":"operator","type":"address","internalType":"address"},{"name":"owner","type":"address","internalType":"address"}]},{"type":"error","name":"OwnableInvalidOwner","inputs":[{"name":"owner","type":"address","internalType":"address"}]},{"type":"error","name":"OwnableUnauthorizedAccount","inputs":[{"name":"account","type":"address","internalType":"address"}]}],"bytecode":{"object":"0x608060405234801561000f575f5ffd5b5061001e6100cc60201b60201c565b6040518060600160405280602a8152602001614bde602a9139610046816100d360201b60201c565b505f73ffffffffffffffffffffffffffffffffffffffff168173ffffffffffffffffffffffffffffffffffffffff16036100b7575f6040517f1e4fbdf70000000000000000000000000000000000000000000000000000000081526004016100ae91906101e8565b60405180910390fd5b6100c6816100e660201b60201c565b5061050d565b5f33905090565b80600290816100e2919061043e565b5050565b5f60035f9054906101000a900473ffffffffffffffffffffffffffffffffffffffff1690508160035f6101000a81548173ffffffffffffffffffffffffffffffffffffffff021916908373ffffffffffffffffffffffffffffffffffffffff1602179055508173ffffffffffffffffffffffffffffffffffffffff168173ffffffffffffffffffffffffffffffffffffffff167f8be0079c531659141344cd1fd0a4f28419497f9722a3daafe3b4186f6b6457e060405160405180910390a35050565b5f73ffffffffffffffffffffffffffffffffffffffff82169050919050565b5f6101d2826101a9565b9050919050565b6101e2816101c8565b82525050565b5f6020820190506101fb5f8301846101d9565b92915050565b5f81519050919050565b7f4e487b71000000000000000000000000000000000000000000000000000000005f52604160045260245ffd5b7f4e487b71000000000000000000000000000000000000000000000000000000005f52602260045260245ffd5b5f600282049050600182168061027c57607f821691505b60208210810361028f5761028e610238565b5b50919050565b5f819050815f5260205f209050919050565b5f6020601f8301049050919050565b5f82821b905092915050565b5f600883026102f17fffffffffffffffffffffffffffffffffffffffffffffffffffffffffffffffff826102b6565b6102fb86836102b6565b95508019841693508086168417925050509392505050565b5f819050919050565b5f819050919050565b5f61033f61033a61033584610313565b61031c565b610313565b9050919050565b5f819050919050565b61035883610325565b61036c61036482610346565b8484546102c2565b825550505050565b5f5f905090565b610383610374565b61038e81848461034f565b505050565b5b818110156103b1576103a65f8261037b565b600181019050610394565b5050565b601f8211156103f6576103c781610295565b6103d0846102a7565b810160208510156103df578190505b6103f36103eb856102a7565b830182610393565b50505b505050565b5f82821c905092915050565b5f6104165f19846008026103fb565b1980831691505092915050565b5f61042e8383610407565b9150826002028217905092915050565b61044782610201565b67ffffffffffffffff8111156104605761045f61020b565b5b61046a8254610265565b6104758282856103b5565b5f60209050601f8311600181146104a6575f8415610494578287015190505b61049e8582610423565b865550610505565b601f1984166104b486610295565b5f5b828110156104db578489015182556001820191506020850194506020810190506104b6565b868310156104f857848901516104f4601f891682610407565b8355505b6001600288020188555050505b505050505050565b6146c48061051a5f395ff3fe608060405234801561000f575f5ffd5b506004361061013f575f3560e01c8063724ecbf5116100b6578063df9a6c2f1161007a578063df9a6c2f14610390578063e985e9c5146103ac578063eee1e049146103dc578063ef48d1611461040c578063f242432a14610428578063f2fde38b146104445761013f565b8063724ecbf51461030057806380d038291461031c5780638da5cb5b1461033a578063a22cb46514610358578063d3d6e9f5146103745761013f565b80632eb2c2d6116101085780632eb2c2d61461022a5780634e1273f414610246578063582f0c09146102765780636671d1dd146102a657806370e1391b146102da578063715018a6146102f65761013f565b8062fdd58e1461014357806301ffc9a714610173578063086a8a87146101a35780630e89341c146101bf578063107046bd146101ef575b5f5ffd5b61015d60048036038101906101589190612dcb565b610460565b60405161016a9190612e18565b60405180910390f35b61018d60048036038101906101889190612e86565b6104b5565b60405161019a9190612ecb565b60405180910390f35b6101bd60048036038101906101b89190613020565b610596565b005b6101d960048036038101906101d4919061307a565b6106f0565b6040516101e69190613105565b60405180910390f35b6102096004803603810190610204919061307a565b610757565b6040516102219c9b9a999897969594939291906131a7565b60405180910390f35b610244600480360381019061023f91906133dd565b6109f7565b005b610260600480360381019061025b9190613568565b610a9e565b60405161026d9190613695565b60405180910390f35b610290600480360381019061028b91906136b5565b610ba8565b60405161029d9190612ecb565b60405180910390f35b6102c060048036038101906102bb91906136e0565b610bc5565b6040516102d195949392919061371e565b60405180910390f35b6102f460048036038101906102ef9190613020565b610cb6565b005b6102fe610fbc565b005b61031a60048036038101906103159190613776565b610fcf565b005b6103246111e8565b60405161033191906139fd565b60405180910390f35b6103426115bc565b60405161034f9190613a1d565b60405180910390f35b610372600480360381019061036d9190613a60565b6115e4565b005b61038e600480360381019061038991906136b5565b6115fa565b005b6103aa60048036038101906103a59190613a9e565b611710565b005b6103c660048036038101906103c19190613b42565b6119c8565b6040516103d39190612ecb565b60405180910390f35b6103f660048036038101906103f1919061307a565b611a56565b6040516104039190613cae565b60405180910390f35b610426600480360381019061042191906136b5565b611bc5565b005b610442600480360381019061043d9190613cce565b611d4a565b005b61045e600480360381019061045991906136b5565b611df1565b005b5f5f5f8381526020019081526020015f205f8473ffffffffffffffffffffffffffffffffffffffff1673ffffffffffffffffffffffffffffffffffffffff1681526020019081526020015f2054905092915050565b5f7fd9b67a26000000000000000000000000000000000000000000000000000000007bffffffffffffffffffffffffffffffffffffffffffffffffffffffff1916827bffffffffffffffffffffffffffffffffffffffffffffffffffffffff1916148061057f57507f0e89341c000000000000000000000000000000000000000000000000000000007bffffffffffffffffffffffffffffffffffffffffffffffffffffffff1916827bffffffffffffffffffffffffffffffffffffffffffffffffffffffff1916145b8061058f575061058e82611e75565b5b9050919050565b61059e611ede565b73ffffffffffffffffffffffffffffffffffffffff166105bc6115bc565b73ffffffffffffffffffffffffffffffffffffffff1614610612576040517f08c379a000000000000000000000000000000000000000000000000000000000815260040161060990613dab565b60405180910390fd5b5f60075f8481526020019081526020015f2090505f815f01540361066b576040517f08c379a000000000000000000000000000000000000000000000000000000000815260040161066290613e13565b60405180910390fd5b60038160040160146101000a81548160ff0219169083600381111561069357610692613134565b5b0217905550818160080190816106a9919061402e565b504281600a0181905550827f04c4bc2e5efa798b7fa128e224a88e0ac9420f33e8a2706d3e3b6280c3f422f6836040516106e39190613105565b60405180910390a2505050565b60605f60075f8481526020019081526020015f205f015403610747576040517f08c379a000000000000000000000000000000000000000000000000000000000815260040161073e9061416d565b60405180910390fd5b61075082611ee5565b9050919050565b6007602052805f5260405f205f91509050805f01549080600101805461077c90613e5e565b80601f01602080910402602001604051908101604052809291908181526020018280546107a890613e5e565b80156107f35780601f106107ca576101008083540402835291602001916107f3565b820191905f5260205f20905b8154815290600101906020018083116107d657829003601f168201915b50505050509080600201805461080890613e5e565b80601f016020809104026020016040519081016040528092919081815260200182805461083490613e5e565b801561087f5780601f106108565761010080835404028352916020019161087f565b820191905f5260205f20905b81548152906001019060200180831161086257829003601f168201915b50505050509080600301805461089490613e5e565b80601f01602080910402602001604051908101604052809291908181526020018280546108c090613e5e565b801561090b5780601f106108e25761010080835404028352916020019161090b565b820191905f5260205f20905b8154815290600101906020018083116108ee57829003601f168201915b505050505090806004015f9054906101000a900473ffffffffffffffffffffffffffffffffffffffff16908060040160149054906101000a900460ff169080600501549080600601549080600701549080600801805461096a90613e5e565b80601f016020809104026020016040519081016040528092919081815260200182805461099690613e5e565b80156109e15780601f106109b8576101008083540402835291602001916109e1565b820191905f5260205f20905b8154815290600101906020018083116109c457829003601f168201915b50505050509080600901549080600a015490508c565b5f610a00611ede565b90508073ffffffffffffffffffffffffffffffffffffffff168673ffffffffffffffffffffffffffffffffffffffff1614158015610a455750610a4386826119c8565b155b15610a895780866040517fe237d922000000000000000000000000000000000000000000000000000000008152600401610a8092919061418b565b60405180910390fd5b610a968686868686611f77565b505050505050565b60608151835114610aea57815183516040517f5b059991000000000000000000000000000000000000000000000000000000008152600401610ae19291906141b2565b60405180910390fd5b5f835167ffffffffffffffff811115610b0657610b05612efc565b5b604051908082528060200260200182016040528015610b345781602001602082028036833780820191505090505b5090505f5f90505b8451811015610b9d57610b73610b5b828761206b90919063ffffffff16565b610b6e838761207e90919063ffffffff16565b610460565b828281518110610b8657610b856141d9565b5b602002602001018181525050806001019050610b3c565b508091505092915050565b6004602052805f5260405f205f915054906101000a900460ff1681565b6008602052815f5260405f208181548110610bde575f80fd5b905f5260205f2090600502015f9150915050805f015490806001015490806002018054610c0a90613e5e565b80601f0160208091040260200160405190810160405280929190818152602001828054610c3690613e5e565b8015610c815780601f10610c5857610100808354040283529160200191610c81565b820191905f5260205f20905b815481529060010190602001808311610c6457829003601f168201915b505050505090806003015490806004015f9054906101000a900473ffffffffffffffffffffffffffffffffffffffff16905085565b60045f610cc1611ede565b73ffffffffffffffffffffffffffffffffffffffff1673ffffffffffffffffffffffffffffffffffffffff1681526020019081526020015f205f9054906101000a900460ff16610d46576040517f08c379a0000000000000000000000000000000000000000000000000000000008152600401610d3d90614250565b60405180910390fd5b5f60075f8481526020019081526020015f2090505f815f015403610d9f576040517f08c379a0000000000000000000000000000000000000000000000000000000008152600401610d9690613e13565b60405180910390fd5b610da7611ede565b73ffffffffffffffffffffffffffffffffffffffff16816004015f9054906101000a900473ffffffffffffffffffffffffffffffffffffffff1673ffffffffffffffffffffffffffffffffffffffff1614610e37576040517f08c379a0000000000000000000000000000000000000000000000000000000008152600401610e2e906142de565b60405180910390fd5b60065f815480929190610e4990614329565b919050555060085f8481526020019081526020015f206040518060a001604052806006548152602001858152602001848152602001428152602001610e8c611ede565b73ffffffffffffffffffffffffffffffffffffffff16815250908060018154018082558091505060019003905f5260205f2090600502015f909190919091505f820151815f0155602082015181600101556040820151816002019081610ef2919061402e565b50606082015181600301556080820151816004015f6101000a81548173ffffffffffffffffffffffffffffffffffffffff021916908373ffffffffffffffffffffffffffffffffffffffff160217905550505060018160040160146101000a81548160ff02191690836003811115610f6d57610f6c613134565b5b0217905550428160050181905550827f53d7dfb139e303fc8e23f679bd0652182dfe17517bea693b5f9458b2dd9d909860065484604051610faf929190614370565b60405180910390a2505050565b610fc4612091565b610fcd5f612118565b565b610fd7611ede565b73ffffffffffffffffffffffffffffffffffffffff16610ff56115bc565b73ffffffffffffffffffffffffffffffffffffffff161461104b576040517f08c379a000000000000000000000000000000000000000000000000000000000815260040161104290613dab565b60405180910390fd5b5f60075f8581526020019081526020015f2090505f815f0154036110a4576040517f08c379a000000000000000000000000000000000000000000000000000000000815260040161109b90613e13565b60405180910390fd5b600160038111156110b8576110b7613134565b5b8160040160149054906101000a900460ff1660038111156110dc576110db613134565b5b1461111c576040517f08c379a00000000000000000000000000000000000000000000000000000000081526004016111139061440e565b60405180910390fd5b60028160040160146101000a81548160ff0219169083600381111561114457611143613134565b5b02179055508181600601819055508281600701819055504281600a01819055505f8311156111aa576111a9816004015f9054906101000a900473ffffffffffffffffffffffffffffffffffffffff16858560405180602001604052805f8152506121db565b5b837f051deb1bc4d34dca3248a2b7a5c31d2e05a2c6f8bab99a6dbe121308e4d921ae846040516111da9190612e18565b60405180910390a250505050565b60605f60055490505f8167ffffffffffffffff81111561120b5761120a612efc565b5b60405190808252806020026020018201604052801561124457816020015b611231612cac565b8152602001906001900390816112295790505b5090505f5f90505b828110156115b35760075f600183611264919061442c565b81526020019081526020015f20604051806101800160405290815f820154815260200160018201805461129690613e5e565b80601f01602080910402602001604051908101604052809291908181526020018280546112c290613e5e565b801561130d5780601f106112e45761010080835404028352916020019161130d565b820191905f5260205f20905b8154815290600101906020018083116112f057829003601f168201915b5050505050815260200160028201805461132690613e5e565b80601f016020809104026020016040519081016040528092919081815260200182805461135290613e5e565b801561139d5780601f106113745761010080835404028352916020019161139d565b820191905f5260205f20905b81548152906001019060200180831161138057829003601f168201915b505050505081526020016003820180546113b690613e5e565b80601f01602080910402602001604051908101604052809291908181526020018280546113e290613e5e565b801561142d5780601f106114045761010080835404028352916020019161142d565b820191905f5260205f20905b81548152906001019060200180831161141057829003601f168201915b50505050508152602001600482015f9054906101000a900473ffffffffffffffffffffffffffffffffffffffff1673ffffffffffffffffffffffffffffffffffffffff1673ffffffffffffffffffffffffffffffffffffffff1681526020016004820160149054906101000a900460ff1660038111156114b0576114af613134565b5b60038111156114c2576114c1613134565b5b81526020016005820154815260200160068201548152602001600782015481526020016008820180546114f490613e5e565b80601f016020809104026020016040519081016040528092919081815260200182805461152090613e5e565b801561156b5780601f106115425761010080835404028352916020019161156b565b820191905f5260205f20905b81548152906001019060200180831161154e57829003601f168201915b5050505050815260200160098201548152602001600a8201548152505082828151811061159b5761159a6141d9565b5b6020026020010181905250808060010191505061124c565b50809250505090565b5f60035f9054906101000a900473ffffffffffffffffffffffffffffffffffffffff16905090565b6115f66115ef611ede565b8383612270565b5050565b611602611ede565b73ffffffffffffffffffffffffffffffffffffffff166116206115bc565b73ffffffffffffffffffffffffffffffffffffffff1614611676576040517f08c379a000000000000000000000000000000000000000000000000000000000815260040161166d90613dab565b60405180910390fd5b5f60045f8373ffffffffffffffffffffffffffffffffffffffff1673ffffffffffffffffffffffffffffffffffffffff1681526020019081526020015f205f6101000a81548160ff0219169083151502179055508073ffffffffffffffffffffffffffffffffffffffff167f88518c4fea226153398d97e8cd705652e2b97a7022910c096f7dba3441ce203d60405160405180910390a250565b60045f61171b611ede565b73ffffffffffffffffffffffffffffffffffffffff1673ffffffffffffffffffffffffffffffffffffffff1681526020019081526020015f205f9054906101000a900460ff166117a0576040517f08c379a000000000000000000000000000000000000000000000000000000000815260040161179790614250565b60405180910390fd5b60055f8154809291906117b290614329565b91905055505f60055490506040518061018001604052808281526020018581526020018481526020018381526020016117e9611ede565b73ffffffffffffffffffffffffffffffffffffffff1681526020015f600381111561181757611816613134565b5b81526020015f81526020015f81526020015f815260200160405180602001604052805f81525081526020014281526020015f81525060075f8381526020019081526020015f205f820151815f0155602082015181600101908161187a919061402e565b506040820151816002019081611890919061402e565b5060608201518160030190816118a6919061402e565b506080820151816004015f6101000a81548173ffffffffffffffffffffffffffffffffffffffff021916908373ffffffffffffffffffffffffffffffffffffffff16021790555060a08201518160040160146101000a81548160ff0219169083600381111561191857611917613134565b5b021790555060c0820151816005015560e082015181600601556101008201518160070155610120820151816008019081611952919061402e565b50610140820151816009015561016082015181600a0155905050611974611ede565b73ffffffffffffffffffffffffffffffffffffffff16817f1fb4423aed62bba3e66f7c81a4af273642c7e8c57d7b111ae2b1aca9887869ba866040516119ba9190613105565b60405180910390a350505050565b5f60015f8473ffffffffffffffffffffffffffffffffffffffff1673ffffffffffffffffffffffffffffffffffffffff1681526020019081526020015f205f8373ffffffffffffffffffffffffffffffffffffffff1673ffffffffffffffffffffffffffffffffffffffff1681526020019081526020015f205f9054906101000a900460ff16905092915050565b606060085f8381526020019081526020015f20805480602002602001604051908101604052809291908181526020015f905b82821015611bba578382905f5260205f2090600502016040518060a00160405290815f820154815260200160018201548152602001600282018054611acc90613e5e565b80601f0160208091040260200160405190810160405280929190818152602001828054611af890613e5e565b8015611b435780601f10611b1a57610100808354040283529160200191611b43565b820191905f5260205f20905b815481529060010190602001808311611b2657829003601f168201915b5050505050815260200160038201548152602001600482015f9054906101000a900473ffffffffffffffffffffffffffffffffffffffff1673ffffffffffffffffffffffffffffffffffffffff1673ffffffffffffffffffffffffffffffffffffffff168152505081526020019060010190611a88565b505050509050919050565b611bcd611ede565b73ffffffffffffffffffffffffffffffffffffffff16611beb6115bc565b73ffffffffffffffffffffffffffffffffffffffff1614611c41576040517f08c379a0000000000000000000000000000000000000000000000000000000008152600401611c3890613dab565b60405180910390fd5b5f73ffffffffffffffffffffffffffffffffffffffff168173ffffffffffffffffffffffffffffffffffffffff1603611caf576040517f08c379a0000000000000000000000000000000000000000000000000000000008152600401611ca6906144a9565b60405180910390fd5b600160045f8373ffffffffffffffffffffffffffffffffffffffff1673ffffffffffffffffffffffffffffffffffffffff1681526020019081526020015f205f6101000a81548160ff0219169083151502179055508073ffffffffffffffffffffffffffffffffffffffff167f1b1791e1f7aa8df7e02466c3f9812bc2a0bd8fae5dd4ae7a4f7ba002243449ae60405160405180910390a250565b5f611d53611ede565b90508073ffffffffffffffffffffffffffffffffffffffff168673ffffffffffffffffffffffffffffffffffffffff1614158015611d985750611d9686826119c8565b155b15611ddc5780866040517fe237d922000000000000000000000000000000000000000000000000000000008152600401611dd392919061418b565b60405180910390fd5b611de986868686866123d9565b505050505050565b611df9612091565b5f73ffffffffffffffffffffffffffffffffffffffff168173ffffffffffffffffffffffffffffffffffffffff1603611e69575f6040517f1e4fbdf7000000000000000000000000000000000000000000000000000000008152600401611e609190613a1d565b60405180910390fd5b611e7281612118565b50565b5f7f01ffc9a7000000000000000000000000000000000000000000000000000000007bffffffffffffffffffffffffffffffffffffffffffffffffffffffff1916827bffffffffffffffffffffffffffffffffffffffffffffffffffffffff1916149050919050565b5f33905090565b606060028054611ef490613e5e565b80601f0160208091040260200160405190810160405280929190818152602001828054611f2090613e5e565b8015611f6b5780601f10611f4257610100808354040283529160200191611f6b565b820191905f5260205f20905b815481529060010190602001808311611f4e57829003601f168201915b50505050509050919050565b5f73ffffffffffffffffffffffffffffffffffffffff168473ffffffffffffffffffffffffffffffffffffffff1603611fe7575f6040517f57f447ce000000000000000000000000000000000000000000000000000000008152600401611fde9190613a1d565b60405180910390fd5b5f73ffffffffffffffffffffffffffffffffffffffff168573ffffffffffffffffffffffffffffffffffffffff1603612057575f6040517f01a8351400000000000000000000000000000000000000000000000000000000815260040161204e9190613a1d565b60405180910390fd5b61206485858585856124df565b5050505050565b5f60208202602084010151905092915050565b5f60208202602084010151905092915050565b612099611ede565b73ffffffffffffffffffffffffffffffffffffffff166120b76115bc565b73ffffffffffffffffffffffffffffffffffffffff1614612116576120da611ede565b6040517f118cdaa700000000000000000000000000000000000000000000000000000000815260040161210d9190613a1d565b60405180910390fd5b565b5f60035f9054906101000a900473ffffffffffffffffffffffffffffffffffffffff1690508160035f6101000a81548173ffffffffffffffffffffffffffffffffffffffff021916908373ffffffffffffffffffffffffffffffffffffffff1602179055508173ffffffffffffffffffffffffffffffffffffffff168173ffffffffffffffffffffffffffffffffffffffff167f8be0079c531659141344cd1fd0a4f28419497f9722a3daafe3b4186f6b6457e060405160405180910390a35050565b5f73ffffffffffffffffffffffffffffffffffffffff168473ffffffffffffffffffffffffffffffffffffffff160361224b575f6040517f57f447ce0000000000000000000000000000000000000000000000000000000081526004016122429190613a1d565b60405180910390fd5b5f5f612257858561258b565b915091506122685f878484876124df565b505050505050565b5f73ffffffffffffffffffffffffffffffffffffffff168273ffffffffffffffffffffffffffffffffffffffff16036122e0575f6040517fced3e1000000000000000000000000000000000000000000000000000000000081526004016122d79190613a1d565b60405180910390fd5b8060015f8573ffffffffffffffffffffffffffffffffffffffff1673ffffffffffffffffffffffffffffffffffffffff1681526020019081526020015f205f8473ffffffffffffffffffffffffffffffffffffffff1673ffffffffffffffffffffffffffffffffffffffff1681526020019081526020015f205f6101000a81548160ff0219169083151502179055508173ffffffffffffffffffffffffffffffffffffffff168373ffffffffffffffffffffffffffffffffffffffff167f17307eab39ab6107e8899845ad3d59bd9653f200f220920489ca2b5937696c31836040516123cc9190612ecb565b60405180910390a3505050565b5f73ffffffffffffffffffffffffffffffffffffffff168473ffffffffffffffffffffffffffffffffffffffff1603612449575f6040517f57f447ce0000000000000000000000000000000000000000000000000000000081526004016124409190613a1d565b60405180910390fd5b5f73ffffffffffffffffffffffffffffffffffffffff168573ffffffffffffffffffffffffffffffffffffffff16036124b9575f6040517f01a835140000000000000000000000000000000000000000000000000000000081526004016124b09190613a1d565b60405180910390fd5b5f5f6124c5858561258b565b915091506124d687878484876124df565b50505050505050565b6124eb858585856125bb565b5f73ffffffffffffffffffffffffffffffffffffffff168473ffffffffffffffffffffffffffffffffffffffff1614612584575f612527611ede565b90506001845103612573575f6125465f8661207e90919063ffffffff16565b90505f61255c5f8661207e90919063ffffffff16565b905061256c83898985858961294e565b5050612582565b612581818787878787612afd565b5b505b5050505050565b60608060405191506001825283602083015260408201905060018152826020820152604081016040529250929050565b805182511461260557815181516040517f5b0599910000000000000000000000000000000000000000000000000000000081526004016125fc9291906141b2565b60405180910390fd5b5f61260e611ede565b90505f5f90505b835181101561280d575f612632828661207e90919063ffffffff16565b90505f612648838661207e90919063ffffffff16565b90505f73ffffffffffffffffffffffffffffffffffffffff168873ffffffffffffffffffffffffffffffffffffffff161461276b575f5f5f8481526020019081526020015f205f8a73ffffffffffffffffffffffffffffffffffffffff1673ffffffffffffffffffffffffffffffffffffffff1681526020019081526020015f205490508181101561271757888183856040517f03dee4c500000000000000000000000000000000000000000000000000000000815260040161270e94939291906144c7565b60405180910390fd5b8181035f5f8581526020019081526020015f205f8b73ffffffffffffffffffffffffffffffffffffffff1673ffffffffffffffffffffffffffffffffffffffff1681526020019081526020015f2081905550505b5f73ffffffffffffffffffffffffffffffffffffffff168773ffffffffffffffffffffffffffffffffffffffff161461280057805f5f8481526020019081526020015f205f8973ffffffffffffffffffffffffffffffffffffffff1673ffffffffffffffffffffffffffffffffffffffff1681526020019081526020015f205f8282546127f8919061442c565b925050819055505b5050806001019050612615565b5060018351036128c8575f61282b5f8561207e90919063ffffffff16565b90505f6128415f8561207e90919063ffffffff16565b90508573ffffffffffffffffffffffffffffffffffffffff168773ffffffffffffffffffffffffffffffffffffffff168473ffffffffffffffffffffffffffffffffffffffff167fc3d58168c5ae7397731d063d5bbf3d657854427343f4c083240f7aacaa2d0f6285856040516128b99291906141b2565b60405180910390a45050612947565b8373ffffffffffffffffffffffffffffffffffffffff168573ffffffffffffffffffffffffffffffffffffffff168273ffffffffffffffffffffffffffffffffffffffff167f4a39dc06d4c0dbc64b70af90fd698a233a518aa5d07e595d983b8c0526c8f7fb868660405161293e92919061450a565b60405180910390a45b5050505050565b5f8473ffffffffffffffffffffffffffffffffffffffff163b1115612af5578373ffffffffffffffffffffffffffffffffffffffff1663f23a6e6187878686866040518663ffffffff1660e01b81526004016129ae959493929190614591565b6020604051808303815f875af19250505080156129e957506040513d601f19601f820116820180604052508101906129e691906145fd565b60015b612a6a573d805f8114612a17576040519150601f19603f3d011682016040523d82523d5f602084013e612a1c565b606091505b505f815103612a6257846040517f57f447ce000000000000000000000000000000000000000000000000000000008152600401612a599190613a1d565b60405180910390fd5b805160208201fd5b63f23a6e6160e01b7bffffffffffffffffffffffffffffffffffffffffffffffffffffffff1916817bffffffffffffffffffffffffffffffffffffffffffffffffffffffff191614612af357846040517f57f447ce000000000000000000000000000000000000000000000000000000008152600401612aea9190613a1d565b60405180910390fd5b505b505050505050565b5f8473ffffffffffffffffffffffffffffffffffffffff163b1115612ca4578373ffffffffffffffffffffffffffffffffffffffff1663bc197c8187878686866040518663ffffffff1660e01b8152600401612b5d959493929190614628565b6020604051808303815f875af1925050508015612b9857506040513d601f19601f82011682018060405250810190612b9591906145fd565b60015b612c19573d805f8114612bc6576040519150601f19603f3d011682016040523d82523d5f602084013e612bcb565b606091505b505f815103612c1157846040517f57f447ce000000000000000000000000000000000000000000000000000000008152600401612c089190613a1d565b60405180910390fd5b805160208201fd5b63bc197c8160e01b7bffffffffffffffffffffffffffffffffffffffffffffffffffffffff1916817bffffffffffffffffffffffffffffffffffffffffffffffffffffffff191614612ca257846040517f57f447ce000000000000000000000000000000000000000000000000000000008152600401612c999190613a1d565b60405180910390fd5b505b505050505050565b6040518061018001604052805f81526020016060815260200160608152602001606081526020015f73ffffffffffffffffffffffffffffffffffffffff1681526020015f6003811115612d0257612d01613134565b5b81526020015f81526020015f81526020015f8152602001606081526020015f81526020015f81525090565b5f604051905090565b5f5ffd5b5f5ffd5b5f73ffffffffffffffffffffffffffffffffffffffff82169050919050565b5f612d6782612d3e565b9050919050565b612d7781612d5d565b8114612d81575f5ffd5b50565b5f81359050612d9281612d6e565b92915050565b5f819050919050565b612daa81612d98565b8114612db4575f5ffd5b50565b5f81359050612dc581612da1565b92915050565b5f5f60408385031215612de157612de0612d36565b5b5f612dee85828601612d84565b9250506020612dff85828601612db7565b9150509250929050565b612e1281612d98565b82525050565b5f602082019050612e2b5f830184612e09565b92915050565b5f7fffffffff0000000000000000000000000000000000000000000000000000000082169050919050565b612e6581612e31565b8114612e6f575f5ffd5b50565b5f81359050612e8081612e5c565b92915050565b5f60208284031215612e9b57612e9a612d36565b5b5f612ea884828501612e72565b91505092915050565b5f8115159050919050565b612ec581612eb1565b82525050565b5f602082019050612ede5f830184612ebc565b92915050565b5f5ffd5b5f5ffd5b5f601f19601f8301169050919050565b7f4e487b71000000000000000000000000000000000000000000000000000000005f52604160045260245ffd5b612f3282612eec565b810181811067ffffffffffffffff82111715612f5157612f50612efc565b5b80604052505050565b5f612f63612d2d565b9050612f6f8282612f29565b919050565b5f67ffffffffffffffff821115612f8e57612f8d612efc565b5b612f9782612eec565b9050602081019050919050565b828183375f83830152505050565b5f612fc4612fbf84612f74565b612f5a565b905082815260208101848484011115612fe057612fdf612ee8565b5b612feb848285612fa4565b509392505050565b5f82601f83011261300757613006612ee4565b5b8135613017848260208601612fb2565b91505092915050565b5f5f6040838503121561303657613035612d36565b5b5f61304385828601612db7565b925050602083013567ffffffffffffffff81111561306457613063612d3a565b5b61307085828601612ff3565b9150509250929050565b5f6020828403121561308f5761308e612d36565b5b5f61309c84828501612db7565b91505092915050565b5f81519050919050565b5f82825260208201905092915050565b8281835e5f83830152505050565b5f6130d7826130a5565b6130e181856130af565b93506130f18185602086016130bf565b6130fa81612eec565b840191505092915050565b5f6020820190508181035f83015261311d81846130cd565b905092915050565b61312e81612d5d565b82525050565b7f4e487b71000000000000000000000000000000000000000000000000000000005f52602160045260245ffd5b6004811061317257613171613134565b5b50565b5f81905061318282613161565b919050565b5f61319182613175565b9050919050565b6131a181613187565b82525050565b5f610180820190506131bb5f83018f612e09565b81810360208301526131cd818e6130cd565b905081810360408301526131e1818d6130cd565b905081810360608301526131f5818c6130cd565b9050613204608083018b613125565b61321160a083018a613198565b61321e60c0830189612e09565b61322b60e0830188612e09565b613239610100830187612e09565b81810361012083015261324c81866130cd565b905061325c610140830185612e09565b61326a610160830184612e09565b9d9c50505050505050505050505050565b5f67ffffffffffffffff82111561329557613294612efc565b5b602082029050602081019050919050565b5f5ffd5b5f6132bc6132b78461327b565b612f5a565b905080838252602082019050602084028301858111156132df576132de6132a6565b5b835b8181101561330857806132f48882612db7565b8452602084019350506020810190506132e1565b5050509392505050565b5f82601f83011261332657613325612ee4565b5b81356133368482602086016132aa565b91505092915050565b5f67ffffffffffffffff82111561335957613358612efc565b5b61336282612eec565b9050602081019050919050565b5f61338161337c8461333f565b612f5a565b90508281526020810184848401111561339d5761339c612ee8565b5b6133a8848285612fa4565b509392505050565b5f82601f8301126133c4576133c3612ee4565b5b81356133d484826020860161336f565b91505092915050565b5f5f5f5f5f60a086880312156133f6576133f5612d36565b5b5f61340388828901612d84565b955050602061341488828901612d84565b945050604086013567ffffffffffffffff81111561343557613434612d3a565b5b61344188828901613312565b935050606086013567ffffffffffffffff81111561346257613461612d3a565b5b61346e88828901613312565b925050608086013567ffffffffffffffff81111561348f5761348e612d3a565b5b61349b888289016133b0565b9150509295509295909350565b5f67ffffffffffffffff8211156134c2576134c1612efc565b5b602082029050602081019050919050565b5f6134e56134e0846134a8565b612f5a565b90508083825260208201905060208402830185811115613508576135076132a6565b5b835b81811015613531578061351d8882612d84565b84526020840193505060208101905061350a565b5050509392505050565b5f82601f83011261354f5761354e612ee4565b5b813561355f8482602086016134d3565b91505092915050565b5f5f6040838503121561357e5761357d612d36565b5b5f83013567ffffffffffffffff81111561359b5761359a612d3a565b5b6135a78582860161353b565b925050602083013567ffffffffffffffff8111156135c8576135c7612d3a565b5b6135d485828601613312565b9150509250929050565b5f81519050919050565b5f82825260208201905092915050565b5f819050602082019050919050565b61361081612d98565b82525050565b5f6136218383613607565b60208301905092915050565b5f602082019050919050565b5f613643826135de565b61364d81856135e8565b9350613658836135f8565b805f5b8381101561368857815161366f8882613616565b975061367a8361362d565b92505060018101905061365b565b5085935050505092915050565b5f6020820190508181035f8301526136ad8184613639565b905092915050565b5f602082840312156136ca576136c9612d36565b5b5f6136d784828501612d84565b91505092915050565b5f5f604083850312156136f6576136f5612d36565b5b5f61370385828601612db7565b925050602061371485828601612db7565b9150509250929050565b5f60a0820190506137315f830188612e09565b61373e6020830187612e09565b818103604083015261375081866130cd565b905061375f6060830185612e09565b61376c6080830184613125565b9695505050505050565b5f5f5f6060848603121561378d5761378c612d36565b5b5f61379a86828701612db7565b93505060206137ab86828701612db7565b92505060406137bc86828701612db7565b9150509250925092565b5f81519050919050565b5f82825260208201905092915050565b5f819050602082019050919050565b5f82825260208201905092915050565b5f613809826130a5565b61381381856137ef565b93506138238185602086016130bf565b61382c81612eec565b840191505092915050565b61384081612d5d565b82525050565b61384f81613187565b82525050565b5f61018083015f83015161386b5f860182613607565b506020830151848203602086015261388382826137ff565b9150506040830151848203604086015261389d82826137ff565b915050606083015184820360608601526138b782826137ff565b91505060808301516138cc6080860182613837565b5060a08301516138df60a0860182613846565b5060c08301516138f260c0860182613607565b5060e083015161390560e0860182613607565b5061010083015161391a610100860182613607565b5061012083015184820361012086015261393482826137ff565b91505061014083015161394b610140860182613607565b50610160830151613960610160860182613607565b508091505092915050565b5f6139768383613855565b905092915050565b5f602082019050919050565b5f613994826137c6565b61399e81856137d0565b9350836020820285016139b0856137e0565b805f5b858110156139eb57848403895281516139cc858261396b565b94506139d78361397e565b925060208a019950506001810190506139b3565b50829750879550505050505092915050565b5f6020820190508181035f830152613a15818461398a565b905092915050565b5f602082019050613a305f830184613125565b92915050565b613a3f81612eb1565b8114613a49575f5ffd5b50565b5f81359050613a5a81613a36565b92915050565b5f5f60408385031215613a7657613a75612d36565b5b5f613a8385828601612d84565b9250506020613a9485828601613a4c565b9150509250929050565b5f5f5f60608486031215613ab557613ab4612d36565b5b5f84013567ffffffffffffffff811115613ad257613ad1612d3a565b5b613ade86828701612ff3565b935050602084013567ffffffffffffffff811115613aff57613afe612d3a565b5b613b0b86828701612ff3565b925050604084013567ffffffffffffffff811115613b2c57613b2b612d3a565b5b613b3886828701612ff3565b9150509250925092565b5f5f60408385031215613b5857613b57612d36565b5b5f613b6585828601612d84565b9250506020613b7685828601612d84565b9150509250929050565b5f81519050919050565b5f82825260208201905092915050565b5f819050602082019050919050565b5f60a083015f830151613bbe5f860182613607565b506020830151613bd16020860182613607565b5060408301518482036040860152613be982826137ff565b9150506060830151613bfe6060860182613607565b506080830151613c116080860182613837565b508091505092915050565b5f613c278383613ba9565b905092915050565b5f602082019050919050565b5f613c4582613b80565b613c4f8185613b8a565b935083602082028501613c6185613b9a565b805f5b85811015613c9c5784840389528151613c7d8582613c1c565b9450613c8883613c2f565b925060208a01995050600181019050613c64565b50829750879550505050505092915050565b5f6020820190508181035f830152613cc68184613c3b565b905092915050565b5f5f5f5f5f60a08688031215613ce757613ce6612d36565b5b5f613cf488828901612d84565b9550506020613d0588828901612d84565b9450506040613d1688828901612db7565b9350506060613d2788828901612db7565b925050608086013567ffffffffffffffff811115613d4857613d47612d3a565b5b613d54888289016133b0565b9150509295509295909350565b7f43616c6c6572206973206e6f74207468652061646d696e0000000000000000005f82015250565b5f613d956017836130af565b9150613da082613d61565b602082019050919050565b5f6020820190508181035f830152613dc281613d89565b9050919050565b7f50726f6a65637420646f6573206e6f74206578697374000000000000000000005f82015250565b5f613dfd6016836130af565b9150613e0882613dc9565b602082019050919050565b5f6020820190508181035f830152613e2a81613df1565b9050919050565b7f4e487b71000000000000000000000000000000000000000000000000000000005f52602260045260245ffd5b5f6002820490506001821680613e7557607f821691505b602082108103613e8857613e87613e31565b5b50919050565b5f819050815f5260205f209050919050565b5f6020601f8301049050919050565b5f82821b905092915050565b5f60088302613eea7fffffffffffffffffffffffffffffffffffffffffffffffffffffffffffffffff82613eaf565b613ef48683613eaf565b95508019841693508086168417925050509392505050565b5f819050919050565b5f613f2f613f2a613f2584612d98565b613f0c565b612d98565b9050919050565b5f819050919050565b613f4883613f15565b613f5c613f5482613f36565b848454613ebb565b825550505050565b5f5f905090565b613f73613f64565b613f7e818484613f3f565b505050565b5b81811015613fa157613f965f82613f6b565b600181019050613f84565b5050565b601f821115613fe657613fb781613e8e565b613fc084613ea0565b81016020851015613fcf578190505b613fe3613fdb85613ea0565b830182613f83565b50505b505050565b5f82821c905092915050565b5f6140065f1984600802613feb565b1980831691505092915050565b5f61401e8383613ff7565b9150826002028217905092915050565b614037826130a5565b67ffffffffffffffff8111156140505761404f612efc565b5b61405a8254613e5e565b614065828285613fa5565b5f60209050601f831160018114614096575f8415614084578287015190505b61408e8582614013565b8655506140f5565b601f1984166140a486613e8e565b5f5b828110156140cb578489015182556001820191506020850194506020810190506140a6565b868310156140e857848901516140e4601f891682613ff7565b8355505b6001600288020188555050505b505050505050565b7f455243313135354d657461646174613a2055524920717565727920666f72206e5f8201527f6f6e6578697374656e7420746f6b656e00000000000000000000000000000000602082015250565b5f6141576030836130af565b9150614162826140fd565b604082019050919050565b5f6020820190508181035f8301526141848161414b565b9050919050565b5f60408201905061419e5f830185613125565b6141ab6020830184613125565b9392505050565b5f6040820190506141c55f830185612e09565b6141d26020830184612e09565b9392505050565b7f4e487b71000000000000000000000000000000000000000000000000000000005f52603260045260245ffd5b7f43616c6c6572206973206e6f7420616e20617070726f766564204e474f0000005f82015250565b5f61423a601d836130af565b915061424582614206565b602082019050919050565b5f6020820190508181035f8301526142678161422e565b9050919050565b7f596f7520617265206e6f7420746865206f776e6572206f6620746869732070725f8201527f6f6a656374000000000000000000000000000000000000000000000000000000602082015250565b5f6142c86025836130af565b91506142d38261426e565b604082019050919050565b5f6020820190508181035f8301526142f5816142bc565b9050919050565b7f4e487b71000000000000000000000000000000000000000000000000000000005f52601160045260245ffd5b5f61433382612d98565b91507fffffffffffffffffffffffffffffffffffffffffffffffffffffffffffffffff8203614365576143646142fc565b5b600182019050919050565b5f6040820190506143835f830185612e09565b818103602083015261439581846130cd565b90509392505050565b7f50726f6a656374206e6f7420726561647920666f7220766572696669636174695f8201527f6f6e000000000000000000000000000000000000000000000000000000000000602082015250565b5f6143f86022836130af565b91506144038261439e565b604082019050919050565b5f6020820190508181035f830152614425816143ec565b9050919050565b5f61443682612d98565b915061444183612d98565b9250828201905080821115614459576144586142fc565b5b92915050565b7f496e76616c6964206164647265737300000000000000000000000000000000005f82015250565b5f614493600f836130af565b915061449e8261445f565b602082019050919050565b5f6020820190508181035f8301526144c081614487565b9050919050565b5f6080820190506144da5f830187613125565b6144e76020830186612e09565b6144f46040830185612e09565b6145016060830184612e09565b95945050505050565b5f6040820190508181035f8301526145228185613639565b905081810360208301526145368184613639565b90509392505050565b5f81519050919050565b5f82825260208201905092915050565b5f6145638261453f565b61456d8185614549565b935061457d8185602086016130bf565b61458681612eec565b840191505092915050565b5f60a0820190506145a45f830188613125565b6145b16020830187613125565b6145be6040830186612e09565b6145cb6060830185612e09565b81810360808301526145dd8184614559565b90509695505050505050565b5f815190506145f781612e5c565b92915050565b5f6020828403121561461257614611612d36565b5b5f61461f848285016145e9565b91505092915050565b5f60a08201905061463b5f830188613125565b6146486020830187613125565b818103604083015261465a8186613639565b9050818103606083015261466e8185613639565b905081810360808301526146828184614559565b9050969550505050505056fea2646970667358221220d6a632a9376a897b8f322cde4e50b7641e506e0b510591f6efbd510a8000268364736f6c634300081e003368747470733a2f2f626c75656c65646765722e6170702f6170692f746f6b656e2f7b69647d2e6a736f6e","linkReferences":{}},"methodIdentifiers":{"addNgo(address)":"ef48d161","balanceOf(address,uint256)":"00fdd58e","balanceOfBatch(address[],uint256[])":"4e1273f4","getAllProjects()":"80d03829","getMRVDataForProject(uint256)":"eee1e049","isApprovedForAll(address,address)":"e985e9c5","isNgo(address)":"582f0c09","owner()":"8da5cb5b","projectMRVData(uint256,uint256)":"6671d1dd","projects(uint256)":"107046bd","registerProject(string,string,string)":"df9a6c2f","rejectProject(uint256,string)":"086a8a87","removeNgo(address)":"d3d6e9f5","renounceOwnership()":"715018a6","safeBatchTransferFrom(address,address,uint256[],uint256[],bytes)":"2eb2c2d6","safeTransferFrom(address,address,uint256,uint256,bytes)":"f242432a","setApprovalForAll(address,bool)":"a22cb465","submitMRVData(uint256,string)":"70e1391b","supportsInterface(bytes4)":"01ffc9a7","transferOwnership(address)":"f2fde38b","uri(uint256)":"0e89341c","verifyAndMintCredits(uint256,uint256,uint256)":"724ecbf5"},"id":19}